{
  "contractName": "CreditingSystem",
  "abi": [
    {
      "constant": true,
      "inputs": [
        {
          "name": "",
          "type": "address"
        }
      ],
      "name": "isCurrentLoanExist",
      "outputs": [
        {
          "name": "",
          "type": "bool"
        }
      ],
      "payable": false,
      "stateMutability": "view",
      "type": "function"
    },
    {
      "constant": true,
      "inputs": [
        {
          "name": "",
          "type": "address"
        }
      ],
      "name": "isFirstTimeLoaner",
      "outputs": [
        {
          "name": "",
          "type": "bool"
        }
      ],
      "payable": false,
      "stateMutability": "view",
      "type": "function"
    },
    {
      "constant": true,
      "inputs": [
        {
          "name": "",
          "type": "address"
        }
      ],
      "name": "totalPayable",
      "outputs": [
        {
          "name": "",
          "type": "uint256"
        }
      ],
      "payable": false,
      "stateMutability": "view",
      "type": "function"
    },
    {
      "constant": true,
      "inputs": [
        {
          "name": "",
          "type": "address"
        }
      ],
      "name": "balance",
      "outputs": [
        {
          "name": "",
          "type": "uint256"
        }
      ],
      "payable": false,
      "stateMutability": "view",
      "type": "function"
    },
    {
      "constant": true,
      "inputs": [
        {
          "name": "",
          "type": "address"
        }
      ],
      "name": "creditScore",
      "outputs": [
        {
          "name": "",
          "type": "uint256"
        }
      ],
      "payable": false,
      "stateMutability": "view",
      "type": "function"
    },
    {
      "inputs": [],
      "payable": false,
      "stateMutability": "nonpayable",
      "type": "constructor"
    },
    {
      "constant": false,
      "inputs": [
        {
          "name": "_loanAmount",
          "type": "uint256"
        },
        {
          "name": "_yearss",
          "type": "uint256"
        }
      ],
      "name": "loanMoney",
      "outputs": [
        {
          "name": "",
          "type": "bool"
        }
      ],
      "payable": false,
      "stateMutability": "nonpayable",
      "type": "function"
    },
    {
      "constant": true,
      "inputs": [],
      "name": "viewCalculatedLoan",
      "outputs": [
        {
          "name": "",
          "type": "uint256"
        },
        {
          "name": "",
          "type": "uint256"
        },
        {
          "name": "",
          "type": "uint256"
        },
        {
          "name": "",
          "type": "uint256"
        }
      ],
      "payable": false,
      "stateMutability": "view",
      "type": "function"
    },
    {
      "constant": false,
      "inputs": [],
      "name": "confirmLoan",
      "outputs": [
        {
          "name": "",
          "type": "bool"
        }
      ],
      "payable": false,
      "stateMutability": "nonpayable",
      "type": "function"
    },
    {
      "constant": false,
      "inputs": [
        {
          "name": "_payLoan",
          "type": "uint256"
        }
      ],
      "name": "payLoan",
      "outputs": [
        {
          "name": "",
          "type": "bool"
        }
      ],
      "payable": false,
      "stateMutability": "nonpayable",
      "type": "function"
    },
    {
      "constant": true,
      "inputs": [],
      "name": "viewBalance",
      "outputs": [
        {
          "name": "",
          "type": "uint256"
        }
      ],
      "payable": false,
      "stateMutability": "view",
      "type": "function"
    },
    {
      "constant": true,
      "inputs": [],
      "name": "viewCreditScore",
      "outputs": [
        {
          "name": "",
          "type": "uint256"
        }
      ],
      "payable": false,
      "stateMutability": "view",
      "type": "function"
    }
  ],
  "bytecode": "0x608060405234801561001057600080fd5b50336000806101000a81548173ffffffffffffffffffffffffffffffffffffffff021916908373ffffffffffffffffffffffffffffffffffffffff16021790555061151e806100606000396000f3006080604052600436106100af576000357c0100000000000000000000000000000000000000000000000000000000900463ffffffff168063317c14b9146100b457806332c39ca41461010f5780633ff1e05b1461014f5780639bf0e6031461017a578063a8d7b3ec146101a9578063b8eab6c0146101ee578063beb0b7b714610249578063e2be5aed146102a0578063e3d670d7146102ef578063f7e590ee14610346578063f97f09c81461039d575b600080fd5b3480156100c057600080fd5b506100f5600480360381019080803573ffffffffffffffffffffffffffffffffffffffff1690602001909291905050506103c8565b604051808215151515815260200191505060405180910390f35b34801561011b57600080fd5b506101246103e8565b6040518085815260200184815260200183815260200182815260200194505050505060405180910390f35b34801561015b57600080fd5b50610164610408565b6040518082815260200191505060405180910390f35b34801561018657600080fd5b5061018f61044f565b604051808215151515815260200191505060405180910390f35b3480156101b557600080fd5b506101d460048036038101908080359060200190929190505050610c3c565b604051808215151515815260200191505060405180910390f35b3480156101fa57600080fd5b5061022f600480360381019080803573ffffffffffffffffffffffffffffffffffffffff16906020019092919050505061134c565b604051808215151515815260200191505060405180910390f35b34801561025557600080fd5b5061028a600480360381019080803573ffffffffffffffffffffffffffffffffffffffff16906020019092919050505061136c565b6040518082815260200191505060405180910390f35b3480156102ac57600080fd5b506102d56004803603810190808035906020019092919080359060200190929190505050611384565b604051808215151515815260200191505060405180910390f35b3480156102fb57600080fd5b50610330600480360381019080803573ffffffffffffffffffffffffffffffffffffffff16906020019092919050505061147b565b6040518082815260200191505060405180910390f35b34801561035257600080fd5b50610387600480360381019080803573ffffffffffffffffffffffffffffffffffffffff169060200190929190505050611493565b6040518082815260200191505060405180910390f35b3480156103a957600080fd5b506103b26114ab565b6040518082815260200191505060405180910390f35b60086020528060005260406000206000915054906101000a900460ff1681565b600080600080600a54601054601154600f54935093509350935090919293565b6000600160003373ffffffffffffffffffffffffffffffffffffffff1673ffffffffffffffffffffffffffffffffffffffff16815260200190815260200160002054905090565b6000801515600860003373ffffffffffffffffffffffffffffffffffffffff1673ffffffffffffffffffffffffffffffffffffffff16815260200190815260200160002060009054906101000a900460ff16151514151561053e576040517f08c379a00000000000000000000000000000000000000000000000000000000081526004018080602001828103825260318152602001807f596f75207374696c6c20686176652061206c6f616e207468617420697320637581526020017f7272656e746c79206578697374696e672e00000000000000000000000000000081525060400191505060405180910390fd5b60001515600960003373ffffffffffffffffffffffffffffffffffffffff1673ffffffffffffffffffffffffffffffffffffffff16815260200190815260200160002060009054906101000a900460ff16151514156108a8576001600c54141561071d57600c54600760003373ffffffffffffffffffffffffffffffffffffffff1673ffffffffffffffffffffffffffffffffffffffff16815260200190815260200160002081905550600f54600660003373ffffffffffffffffffffffffffffffffffffffff1673ffffffffffffffffffffffffffffffffffffffff16815260200190815260200160002081905550600c600f5402600160003373ffffffffffffffffffffffffffffffffffffffff1673ffffffffffffffffffffffffffffffffffffffff168152602001908152602001600020819055506001600860003373ffffffffffffffffffffffffffffffffffffffff1673ffffffffffffffffffffffffffffffffffffffff16815260200190815260200160002060006101000a81548160ff0219169083151502179055506064600260003373ffffffffffffffffffffffffffffffffffffffff1673ffffffffffffffffffffffffffffffffffffffff1681526020019081526020016000208190555060019050610c39565b6002600c5414156108a357600c54600760003373ffffffffffffffffffffffffffffffffffffffff1673ffffffffffffffffffffffffffffffffffffffff16815260200190815260200160002081905550600f54600660003373ffffffffffffffffffffffffffffffffffffffff1673ffffffffffffffffffffffffffffffffffffffff168152602001908152602001600020819055506018600f5402600160003373ffffffffffffffffffffffffffffffffffffffff1673ffffffffffffffffffffffffffffffffffffffff168152602001908152602001600020819055506001600860003373ffffffffffffffffffffffffffffffffffffffff1673ffffffffffffffffffffffffffffffffffffffff16815260200190815260200160002060006101000a81548160ff0219169083151502179055506064600260003373ffffffffffffffffffffffffffffffffffffffff1673ffffffffffffffffffffffffffffffffffffffff1681526020019081526020016000208190555060019050610c39565b600080fd5b60011515600960003373ffffffffffffffffffffffffffffffffffffffff1673ffffffffffffffffffffffffffffffffffffffff16815260200190815260200160002060009054906101000a900460ff1615151415610c38576001600c541415610a9a57600c54600760003373ffffffffffffffffffffffffffffffffffffffff1673ffffffffffffffffffffffffffffffffffffffff16815260200190815260200160002081905550600f54600660003373ffffffffffffffffffffffffffffffffffffffff1673ffffffffffffffffffffffffffffffffffffffff16815260200190815260200160002081905550600c600f5402600160003373ffffffffffffffffffffffffffffffffffffffff1673ffffffffffffffffffffffffffffffffffffffff168152602001908152602001600020819055506001600860003373ffffffffffffffffffffffffffffffffffffffff1673ffffffffffffffffffffffffffffffffffffffff16815260200190815260200160002060006101000a81548160ff0219169083151502179055506000600960003373ffffffffffffffffffffffffffffffffffffffff1673ffffffffffffffffffffffffffffffffffffffff16815260200190815260200160002060006101000a81548160ff02191690831515021790555060019050610c39565b6002600c541415610c3357600c54600760003373ffffffffffffffffffffffffffffffffffffffff1673ffffffffffffffffffffffffffffffffffffffff16815260200190815260200160002081905550600f54600660003373ffffffffffffffffffffffffffffffffffffffff1673ffffffffffffffffffffffffffffffffffffffff168152602001908152602001600020819055506018600f5402600160003373ffffffffffffffffffffffffffffffffffffffff1673ffffffffffffffffffffffffffffffffffffffff168152602001908152602001600020819055506001600860003373ffffffffffffffffffffffffffffffffffffffff1673ffffffffffffffffffffffffffffffffffffffff16815260200190815260200160002060006101000a81548160ff0219169083151502179055506000600960003373ffffffffffffffffffffffffffffffffffffffff1673ffffffffffffffffffffffffffffffffffffffff16815260200190815260200160002060006101000a81548160ff02191690831515021790555060019050610c39565b600080fd5b5b90565b600080600160003373ffffffffffffffffffffffffffffffffffffffff1673ffffffffffffffffffffffffffffffffffffffff16815260200190815260200160002054118015610cdc575060011515600860003373ffffffffffffffffffffffffffffffffffffffff1673ffffffffffffffffffffffffffffffffffffffff16815260200190815260200160002060009054906101000a900460ff161515145b1515610d50576040517f08c379a00000000000000000000000000000000000000000000000000000000081526004018080602001828103825260138152602001807f4c6f616e20646f65736e27742065786973742e0000000000000000000000000081525060200191505060405180910390fd5b81600160003373ffffffffffffffffffffffffffffffffffffffff1673ffffffffffffffffffffffffffffffffffffffff168152602001908152602001600020541480610ddb575081600160003373ffffffffffffffffffffffffffffffffffffffff1673ffffffffffffffffffffffffffffffffffffffff16815260200190815260200160002054115b156112f957600660003373ffffffffffffffffffffffffffffffffffffffff1673ffffffffffffffffffffffffffffffffffffffff1681526020019081526020016000205482101515610f60576064600260003373ffffffffffffffffffffffffffffffffffffffff1673ffffffffffffffffffffffffffffffffffffffff168152602001908152602001600020541415610ec3576000600260003373ffffffffffffffffffffffffffffffffffffffff1673ffffffffffffffffffffffffffffffffffffffff16815260200190815260200160002060008282540192505081905550610f5b565b6064600260003373ffffffffffffffffffffffffffffffffffffffff1673ffffffffffffffffffffffffffffffffffffffff168152602001908152602001600020541015610f5a576001600260003373ffffffffffffffffffffffffffffffffffffffff1673ffffffffffffffffffffffffffffffffffffffff168152602001908152602001600020600082825401925050819055505b5b611054565b6000821415610fbb5760028060003373ffffffffffffffffffffffffffffffffffffffff1673ffffffffffffffffffffffffffffffffffffffff16815260200190815260200160002060008282540392505081905550611053565b600660003373ffffffffffffffffffffffffffffffffffffffff1673ffffffffffffffffffffffffffffffffffffffff1681526020019081526020016000205482111515611052576001600260003373ffffffffffffffffffffffffffffffffffffffff1673ffffffffffffffffffffffffffffffffffffffff168152602001908152602001600020600082825403925050819055505b5b5b6000600160003373ffffffffffffffffffffffffffffffffffffffff1673ffffffffffffffffffffffffffffffffffffffff1681526020019081526020016000205411156110f25781600160003373ffffffffffffffffffffffffffffffffffffffff1673ffffffffffffffffffffffffffffffffffffffff1681526020019081526020016000206000828254039250508190555060019050611347565b6000600160003373ffffffffffffffffffffffffffffffffffffffff1673ffffffffffffffffffffffffffffffffffffffff1681526020019081526020016000205414156112f4576000600860003373ffffffffffffffffffffffffffffffffffffffff1673ffffffffffffffffffffffffffffffffffffffff16815260200190815260200160002060006101000a81548160ff0219169083151502179055506000600360003373ffffffffffffffffffffffffffffffffffffffff1673ffffffffffffffffffffffffffffffffffffffff168152602001908152602001600020819055506000600660003373ffffffffffffffffffffffffffffffffffffffff1673ffffffffffffffffffffffffffffffffffffffff168152602001908152602001600020819055506000600460003373ffffffffffffffffffffffffffffffffffffffff1673ffffffffffffffffffffffffffffffffffffffff168152602001908152602001600020819055506000600560003373ffffffffffffffffffffffffffffffffffffffff1673ffffffffffffffffffffffffffffffffffffffff168152602001908152602001600020819055506000600760003373ffffffffffffffffffffffffffffffffffffffff1673ffffffffffffffffffffffffffffffffffffffff1681526020019081526020016000208190555060019050611347565b611346565b81600160003373ffffffffffffffffffffffffffffffffffffffff1673ffffffffffffffffffffffffffffffffffffffff16815260200190815260200160002054101561134557600080fd5b5b5b919050565b60096020528060005260406000206000915054906101000a900460ff1681565b60066020528060005260406000206000915090505481565b600060018214156113fb5782600a81905550600a600b8190555081600c81905550600c838115156113b157fe5b04600d81905550600b54600d548115156113c757fe5b04600e81905550600e54600d5401600f81905550600c600f5402601181905550826011540360108190555060019050611475565b60028214156114705782600a81905550600f600b8190555081600c8190555060188381151561142657fe5b04600d81905550600b54600d5481151561143c57fe5b04600e81905550600e54600d5401600f819055506018600f5402601181905550826011540360108190555060019050611475565b600090505b92915050565b60016020528060005260406000206000915090505481565b60026020528060005260406000206000915090505481565b6000600260003373ffffffffffffffffffffffffffffffffffffffff1673ffffffffffffffffffffffffffffffffffffffff168152602001908152602001600020549050905600a165627a7a723058202b67df7667a4378a94c3430bc17cfefd31b6d9f71c8aa125dcbba598bb6889c10029",
  "source": "pragma solidity ^0.4.24;\n\ncontract CreditingSystem {\n\n    address owner;\n    mapping (address => uint256) public balance;\n    // mapping (address => uint256) loanAmount;\n    mapping (address => uint256) public creditScore;\n    mapping (address => uint256) interestRate;\n    mapping (address => uint256) payablePerMonth;\n    mapping (address => uint256) payableIntereset;\n    mapping (address => uint256) public totalPayable;\n    mapping (address => uint256) yearss;\n    mapping (address => bool) public isCurrentLoanExist;\n    mapping (address => bool) public isFirstTimeLoaner;\n\n    // for calculator variables\n    uint256 loanAmount;\n    uint256 interestRateCalc;\n    uint256 yearssCalc;\n    uint256 payablePerMonthCalc;\n    uint256 payableInteresetCalc;\n    uint256 totalPayableCalc;\n    uint256 interestCalc;\n    uint256 futureBalCalc;\n\n\n    constructor() public {\n        owner = msg.sender;\n        balance;\n        // loanAmount;\n        totalPayable;\n        yearss;\n        creditScore;\n    }\n\n    // modifier onlyOwner() {\n    //     require(msg.sender == owner, \"Not authorized.\");\n    //     _;\n    // }\n\n    // This function will serve as the calculator for loaning money\n    // where the user will be inputting the amount loan and years to pay.\n    function loanMoney(uint256 _loanAmount, uint256 _yearss) public returns (bool){\n        if (_yearss == 1) {\n            loanAmount = _loanAmount;\n            interestRateCalc = 10;\n            yearssCalc = _yearss;\n            payablePerMonthCalc = _loanAmount/12;\n            payableInteresetCalc = payablePerMonthCalc/interestRateCalc;\n            /* interestCalc = payableInteresetCalc * 12; */\n            totalPayableCalc= payablePerMonthCalc + payableInteresetCalc;\n            futureBalCalc = totalPayableCalc * 12;\n            interestCalc = futureBalCalc - _loanAmount;\n            return true;\n\n        } else if (_yearss == 2) {\n            loanAmount = _loanAmount;\n            interestRateCalc = 15;\n            yearssCalc = _yearss;\n            payablePerMonthCalc = _loanAmount/24;\n            payableInteresetCalc = payablePerMonthCalc/interestRateCalc;\n            /* interestCalc = payableInteresetCalc * 24; */\n            totalPayableCalc = payablePerMonthCalc + payableInteresetCalc;\n            futureBalCalc = totalPayableCalc * 24;\n            interestCalc = futureBalCalc - _loanAmount;\n            return true;\n        } else {\n            return false;\n            revert();\n        }\n    }\n\n    // This function will view the result from the loanMoney function.\n    function viewCalculatedLoan () public view returns (uint256, uint256, uint256, uint256) {\n        return (loanAmount, interestCalc, futureBalCalc, totalPayableCalc);\n    }\n\n    // This function will confirm a loan if the customer was already satisfied with the result of the viewCalculatedLoans function\n    function confirmLoan() public returns (bool) {\n        require(isCurrentLoanExist[msg.sender] == false , \"You still have a loan that is currently existing.\");\n        if (isFirstTimeLoaner[msg.sender] == false) {\n            if (yearssCalc == 1) {\n                yearss[msg.sender] = yearssCalc;\n                totalPayable[msg.sender] = totalPayableCalc;\n                balance[msg.sender] = totalPayableCalc*12;\n                isCurrentLoanExist[msg.sender] = true;\n                creditScore[msg.sender] = 100;\n                return true;\n            }else if(yearssCalc == 2) {\n                yearss[msg.sender] = yearssCalc;\n                totalPayable[msg.sender] = totalPayableCalc;\n                balance[msg.sender] = totalPayableCalc*24;\n                isCurrentLoanExist[msg.sender] = true;\n                creditScore[msg.sender] = 100;\n                return true;\n            } else {\n                revert();\n                return false;\n            }\n        } else if (isFirstTimeLoaner[msg.sender] == true) {\n            if (yearssCalc == 1) {\n                yearss[msg.sender] = yearssCalc;\n                totalPayable[msg.sender] = totalPayableCalc;\n                balance[msg.sender] = totalPayableCalc*12;\n                isCurrentLoanExist[msg.sender] = true;\n                isFirstTimeLoaner[msg.sender] = false;\n                return true;\n            }else if(yearssCalc == 2) {\n                yearss[msg.sender] = yearssCalc;\n                totalPayable[msg.sender] = totalPayableCalc;\n                balance[msg.sender] = totalPayableCalc*24;\n                isCurrentLoanExist[msg.sender] = true;\n                isFirstTimeLoaner[msg.sender] = false;\n                return true;\n            }else {\n                revert();\n                return false;\n            }\n        }\n    }\n        // if(isFirstTimeLoaner[msg.sender] == true) {\n        //     if (isCurrentLoanExist[msg.sender] == false) {\n        //         if (yearss[msg.sender] == 1) {\n        //             balance[msg.sender] = totalPayable[msg.sender]*12;\n        //             isCurrentLoanExist[msg.sender] = true;\n        //             creditScore[msg.sender] = 80;\n        //             return true;\n        //         }else if(yearss[msg.sender] == 2) {\n        //             balance[msg.sender] = totalPayable[msg.sender]*24;\n        //             isCurrentLoanExist[msg.sender] = true;\n        //             creditScore[msg.sender] = 80;\n        //             return true;\n        //         } else {\n        //             revert();\n        //             return false;\n        //         }\n        //     } else {\n        //         if (isCurrentLoanExist[msg.sender] == false) {\n        //             if (yearss[msg.sender] == 1) {\n        //                 balance[msg.sender] = totalPayable[msg.sender]*12;\n        //                 isCurrentLoanExist[msg.sender] = true;\n        //                 return true;\n        //             }else if(yearss[msg.sender] == 2) {\n        //                 balance[msg.sender] = totalPayable[msg.sender]*24;\n        //                 isCurrentLoanExist[msg.sender] = true;\n        //                 return true;\n        //             }else {\n        //                 revert();\n        //                 return false;\n        //             }\n        //         }\n        //     }\n        // }\n\n    // This function will get the monthly payment from the customer\n    function payLoan(uint256 _payLoan) public returns (bool){\n\n        require(balance[msg.sender] > 0 && isCurrentLoanExist[msg.sender] == true, \"Loan doesn't exist.\");\n        if (balance[msg.sender] == _payLoan || balance[msg.sender] > _payLoan) {\n            if (_payLoan >= totalPayable[msg.sender]){\n                if(creditScore[msg.sender] == 100) {\n                    creditScore[msg.sender] += 0;\n                }else if (creditScore[msg.sender] < 100) {\n                    creditScore[msg.sender] += 1;\n                }\n            }else if(_payLoan  == 0) {\n                creditScore[msg.sender] -= 2;\n            } else if(_payLoan <= totalPayable[msg.sender]) {\n                creditScore[msg.sender] -= 1;\n            }\n            if (balance[msg.sender] > 0) {\n                balance[msg.sender] -= _payLoan;\n                return true;\n            } else if (balance[msg.sender] == 0) {\n                isCurrentLoanExist[msg.sender] = false;\n                interestRate[msg.sender] = 0;\n                totalPayable[msg.sender] = 0;\n                payablePerMonth[msg.sender] = 0;\n                payableIntereset[msg.sender] = 0;\n                yearss[msg.sender] = 0;\n                return true;\n            }\n        } else if (balance[msg.sender] < _payLoan){\n            revert();\n            return false;\n        }\n\n        // if(balance[msg.sender] > 0 && isCurrentLoanExist[msg.sender] == true) {\n        //     if (balance[msg.sender] == _payLoan || balance[msg.sender] > _payLoan) {\n        //         if (_payLoan >= totalPayable[msg.sender]){\n        //             if(creditScore[msg.sender] == 100) {\n        //                 creditScore[msg.sender] += 0;\n        //             }else if (creditScore[msg.sender] < 100) {\n        //                 creditScore[msg.sender] += 1;\n        //             }\n        //         }else if(_payLoan <= totalPayable[msg.sender]) {\n        //             creditScore[msg.sender] -= 1;\n        //         } else if(_payLoan == 0) {\n        //             creditScore[msg.sender] -= 2;\n        //         }\n        //         balance[msg.sender] -= _payLoan;\n        //         return true;\n        //     } else if (balance[msg.sender] < _payLoan){\n        //         revert();\n        //         return false;\n        //     }\n        // } else if (balance[msg.sender] == 0 && isCurrentLoanExist[msg.sender] == false) {\n        //     revert();\n        //     return false;\n        // }\n\n    }\n\n    // This function will view the current balance of the customer\n    function viewBalance() public view returns (uint256) {\n        return balance[msg.sender];\n    }\n\n    // This function will view the credit score of the customer\n    function viewCreditScore() public view returns (uint256) {\n        return creditScore[msg.sender];\n    }\n\n}\n",
  "sourcePath": "/home/academy/Documents/projects - tutorials/MsmeCreditSystem/contracts/CreditingSystem.sol",
  "compiler": {
    "name": "solc",
    "version": "0.4.24+commit.e67f0147.Emscripten.clang"
  },
  "schemaVersion": "2.0.1",
  "updatedAt": "2018-11-29T04:30:39.230Z"
}