{
  "contractName": "CreditingSystem",
  "abi": [
    {
      "inputs": [],
      "payable": false,
      "stateMutability": "nonpayable",
      "type": "constructor"
    },
    {
      "constant": false,
      "inputs": [
        {
          "name": "_loanAmount",
          "type": "uint256"
        },
        {
          "name": "_yearss",
          "type": "uint256"
        }
      ],
      "name": "loanMoney",
      "outputs": [
        {
          "name": "",
          "type": "bool"
        }
      ],
      "payable": false,
      "stateMutability": "nonpayable",
      "type": "function"
    },
    {
      "constant": true,
      "inputs": [],
      "name": "viewCalculatedLoans",
      "outputs": [
        {
          "name": "",
          "type": "uint256"
        },
        {
          "name": "",
          "type": "uint256"
        }
      ],
      "payable": false,
      "stateMutability": "view",
      "type": "function"
    },
    {
      "constant": false,
      "inputs": [],
      "name": "confirmLoan",
      "outputs": [
        {
          "name": "",
          "type": "bool"
        }
      ],
      "payable": false,
      "stateMutability": "nonpayable",
      "type": "function"
    },
    {
      "constant": false,
      "inputs": [
        {
          "name": "_payLoan",
          "type": "uint256"
        }
      ],
      "name": "payLoan",
      "outputs": [
        {
          "name": "",
          "type": "bool"
        }
      ],
      "payable": false,
      "stateMutability": "nonpayable",
      "type": "function"
    },
    {
      "constant": true,
      "inputs": [],
      "name": "viewBalance",
      "outputs": [
        {
          "name": "",
          "type": "uint256"
        }
      ],
      "payable": false,
      "stateMutability": "view",
      "type": "function"
    }
  ],
  "bytecode": "0x608060405234801561001057600080fd5b50336000806101000a81548173ffffffffffffffffffffffffffffffffffffffff021916908373ffffffffffffffffffffffffffffffffffffffff16021790555060006001819055506106d3806100686000396000f30060806040526004361061006d576000357c0100000000000000000000000000000000000000000000000000000000900463ffffffff1680633ff1e05b14610072578063897ae45c1461009d5780639bf0e603146100cf578063a8d7b3ec146100fe578063e2be5aed14610143575b600080fd5b34801561007e57600080fd5b50610087610192565b6040518082815260200191505060405180910390f35b3480156100a957600080fd5b506100b2610260565b604051808381526020018281526020019250505060405180910390f35b3480156100db57600080fd5b506100e4610335565b604051808215151515815260200191505060405180910390f35b34801561010a57600080fd5b5061012960048036038101908080359060200190929190505050610453565b604051808215151515815260200191505060405180910390f35b34801561014f57600080fd5b506101786004803603810190808035906020019092919080359060200190929190505050610532565b604051808215151515815260200191505060405180910390f35b60008060009054906101000a900473ffffffffffffffffffffffffffffffffffffffff1673ffffffffffffffffffffffffffffffffffffffff163373ffffffffffffffffffffffffffffffffffffffff16141515610258576040517f08c379a000000000000000000000000000000000000000000000000000000000815260040180806020018281038252600f8152602001807f4e6f7420617574686f72697a65642e000000000000000000000000000000000081525060200191505060405180910390fd5b600154905090565b6000806000809054906101000a900473ffffffffffffffffffffffffffffffffffffffff1673ffffffffffffffffffffffffffffffffffffffff163373ffffffffffffffffffffffffffffffffffffffff16141515610327576040517f08c379a000000000000000000000000000000000000000000000000000000000815260040180806020018281038252600f8152602001807f4e6f7420617574686f72697a65642e000000000000000000000000000000000081525060200191505060405180910390fd5b600754600854915091509091565b60008060009054906101000a900473ffffffffffffffffffffffffffffffffffffffff1673ffffffffffffffffffffffffffffffffffffffff163373ffffffffffffffffffffffffffffffffffffffff161415156103fb576040517f08c379a000000000000000000000000000000000000000000000000000000000815260040180806020018281038252600f8152602001807f4e6f7420617574686f72697a65642e000000000000000000000000000000000081525060200191505060405180910390fd5b6000600154111561040f5760009050610450565b6001600854141561042f57600c6007540260018190555060019050610450565b6002600854141561044f5760186007540260018190555060019050610450565b5b90565b60008060009054906101000a900473ffffffffffffffffffffffffffffffffffffffff1673ffffffffffffffffffffffffffffffffffffffff163373ffffffffffffffffffffffffffffffffffffffff16141515610519576040517f08c379a000000000000000000000000000000000000000000000000000000000815260040180806020018281038252600f8152602001807f4e6f7420617574686f72697a65642e000000000000000000000000000000000081525060200191505060405180910390fd5b8160016000828254039250508190555060019050919050565b60008060009054906101000a900473ffffffffffffffffffffffffffffffffffffffff1673ffffffffffffffffffffffffffffffffffffffff163373ffffffffffffffffffffffffffffffffffffffff161415156105f8576040517f08c379a000000000000000000000000000000000000000000000000000000000815260040180806020018281038252600f8152602001807f4e6f7420617574686f72697a65642e000000000000000000000000000000000081525060200191505060405180910390fd5b600182141561064b57600a60048190555081600881905550600c8381151561061c57fe5b0460058190555060045460055481151561063257fe5b046006819055506006546005540160078190555061069d565b600282141561069757600f60048190555060188381151561066857fe5b0460058190555060045460055481151561067e57fe5b046006819055506006546005540160078190555061069c565b600080fd5b5b60019050929150505600a165627a7a72305820ee44d7e1c11a0cdde52a7706c2df0c7e0cece68f16a1442e36f5a455a01eb8d70029",
  "source": "pragma solidity ^0.4.24;\n\ncontract CreditingSystem {\n\n    address owner;\n    uint256 balance;\n    uint256 loanAmount;\n    uint256 creditScore;\n    uint256 interestRate;\n    uint256 payablePerMonth;\n    uint256 payableIntereset;\n    uint256 totalPayable;\n    uint256 yearss;\n    bool isLoanExist;\n\n    constructor() public{\n        owner = msg.sender;\n        balance = 0;\n        loanAmount;\n        totalPayable;\n        yearss;\n    }\n\n    modifier onlyOwner() {\n        require(msg.sender == owner, \"Not authorized.\");\n        _;\n    }\n\n    function loanMoney(uint256 _loanAmount, uint256 _yearss) onlyOwner public returns (bool){\n        if (_yearss == 1) {\n            interestRate = 10;\n            yearss = _yearss;\n            payablePerMonth = _loanAmount/12;\n            payableIntereset = payablePerMonth/interestRate;\n            totalPayable = payablePerMonth + payableIntereset;\n\n        } else if (_yearss == 2) {\n            interestRate = 15;\n            payablePerMonth = _loanAmount/24;\n            payableIntereset = payablePerMonth/interestRate;\n            totalPayable = payablePerMonth + payableIntereset;\n        } else {\n            revert();\n        }\n\n        // loanAmount = totalpay;\n        // return (totalPayable, _loanAmount);\n        return true;\n    }\n\n    function viewCalculatedLoans () onlyOwner public view returns (uint256, uint256) {\n        // string yearsss = string(yearss) + \"year/s\";\n        return (totalPayable, yearss);\n    }\n\n    function confirmLoan() onlyOwner public returns (bool) {\n        if(balance > 0) {\n            return false;\n        } else {\n            if (yearss == 1) {\n                balance = totalPayable*12;\n                return true;\n            }else if(yearss == 2) {\n                balance = totalPayable*24;\n                return true;\n            }\n        }\n    }\n\n    function payLoan(uint256 _payLoan) onlyOwner public returns (bool){\n        // if (balance > 0 && balance > _payLoan && balance == _payLoan) {\n        //     balance -= _payLoan;\n        //     return true;\n        // } else {\n        //     return false;\n        // }\n        balance -= _payLoan;\n        return true;\n    }\n\n    function viewBalance () onlyOwner public view returns (uint256) {\n        return balance;\n    }\n\n    // view credit score na function\n\n}\n",
  "sourcePath": "/home/academy/Documents/MsmeCreditSystem/contracts/MsmeCreditSystem.sol",
  "compiler": {
    "name": "solc",
    "version": "0.4.24+commit.e67f0147.Emscripten.clang"
  },
  "schemaVersion": "2.0.1",
  "updatedAt": "2018-11-27T22:07:25.696Z"
}